:020000040800F2
:10000000E0040020D5000008B10F0008B70E00087A
:1000100000000000000000000000000000000000E0
:100020000000000000000000000000008F17000822
:100030000000000000000000F90F0008BF170008D2
:10004000E7000008E7000008E7000008E7000008F4
:10005000E7000008E7000008E7000008E7000008E4
:10006000E7000008E7000008E7000008E7000008D4
:10007000E7000008E700000800000000E7000008B3
:1000800000000000E7000008000000000000000081
:10009000E700000800000000E7000008E700000893
:1000A000E7000008E7000008E7000008E700000894
:1000B000E7000008E7000008E7000008E700000884
:1000C0000348854600F050F800480047B51900087D
:1000D000E00400200448804704480047FEE7FEE7AC
:1000E000FEE7FEE7FEE7FEE745180008C10000084E
:1000F00030B50B46014600202022012409E00D46C0
:10010000D5409D4205D31D469540491B2546954047
:1001100040191546521E002DF1DC30BD70B500248B
:100120002546002801DA01244042002901DA012590
:100130004942FFF7DDFFAC4200D04042002C00D026
:10014000494270BDD2B201E00270401C491EFBD290
:1001500070470022F6E710B513460A4604461946D2
:10016000FFF7F0FF204610BD064C0125064E05E0C6
:10017000E36807CC2B430C3C98471034B442F7D3C8
:10018000FFF7A2FF5C1F00087C1F000870B5002469
:10019000282001F0BDFBFF250D4E013529463046D4
:1001A00000F05AF900280BD1502001F0B1FB29468C
:1001B000304600F051F9002801D0012400E0FF246E
:1001C0002946304600F048F90028F9D1204670BD94
:1001D00000080050F8B50024FF27144E01373946B7
:1001E000304600F039F90028F9D0282001F090FBC2
:1001F0003946304600F030F9002811D00720011BA5
:10020000012088402843C5B23946304600F024F921
:100210000028F9D1641CE4B2082CE0D32846F8BDCC
:100220000720011B012088408543EDE700080050AE
:1002300070B5FF240D4D01342146284601F0B3FA74
:1002400000222146284600F00CF9094801F060FB25
:1002500001222146284600F004F91E2001F058FB37
:100260002146284601F094FA70BD000000080050B5
:100270005046000010B5FFF7DBFFFFF787FF0E4C7D
:100280002070FFF7A7FF6070FFF7A4FFA070FFF7D3
:10029000A1FFE070FFF79EFF2071FFF79BFF6081D9
:1002A000E078E0816178A181E08021817D20C0003B
:1002B00000F004F810BD00000000002070B50446F6
:1002C00000F0D6F80546601C02D0044800782418D7
:1002D00000F0CEF8401BA042FAD370BD24000020ED
:1002E000FCB500230124A2E027462A469F403A405D
:1002F0006FD04D68012D05D0022D03D0112D01D0F6
:10030000122D16D185680326AC465D00AE46AE4080
:100310006546B543AC46CE687546AE4065462E434D
:10032000866046680D79BE43ED06ED0F9D4035436E
:100330004560C6685F000325BD40AE46AE43354606
:100340008E68BE402E43C6604E68022E01D0122E2B
:1003500014D1DE08B60036180196366A5D07B44639
:10036000EE0E0F25B54000966646AE43B4460D69C5
:10037000009EB54066462E43019D2E620668754676
:10038000AE430D79AD07AD0FBD40354305604D68F7
:10039000ED004BD5294D6E6B26436E639E08284DAC
:1003A000B6007519AC46AD689E07360F0F27B740EB
:1003B000BD4305273F07B84201D1002715E0214F73
:1003C000B84201D1012710E01F4FB84202D10227E5
:1003D0000BE02BE01D4FB84201D1032705E01C4F75
:1003E000B84201D1052700E00627B7402F436546F4
:1003F000AF60184D2E684F689643FF0300D5164333
:100400002E606E684F689643BF0300D516436E603A
:10041000AE684F689643FF0200D51643AE60EE68A3
:100420004F689643BF0200D51643EE605B1C0A6816
:100430001546DA4000D057E7FCBD0000001002402E
:10044000000001400004005000080050000C005063
:10045000001C0050000401400069084000D0012049
:100460007047002A01D081617047816270470000A7
:10047000014880687047000024000020024881681D
:1004800002788918816070472400002010B5084860
:1004900000240168402211430160204600F00AF860
:1004A000002801D0012401E000F026F8204610BD0C
:1004B0000020024070B504460D4D7D202978C00013
:1004C000FFF716FE01460B480068FFF711FE00F02B
:1004D00083FC002809D1042C07D200222146401EAB
:1004E00000F016F800206C6070BD012070BD0000A7
:1004F00024000020300000200448416B01221143F9
:100500004163816B02041143816370470010024014
:1005100010B500F04FFD10BDF8B50E4605007DD0BA
:1005200053480068C007C00FB0420AD25048016863
:1005300049084900314301600068C007C00FB0425C
:1005400071D128784B4C800705D5E068F0218843AD
:10055000A9680843E0602878C00752D0686802287C
:1005600017D0032818D02168012818D08905002940
:1005700059DAE168890889000143E160FFF778FFF3
:1005800069680746022912D003291CD0012926D008
:1005900033E021688903EAE721688901E7E7490731
:1005A000E5E7FFF765FFC11B3348814223D8E068C8
:1005B0000007800F0228F4D123E0FFF759FFC11B89
:1005C0002D48814217D8E0680007800F0328F4D136
:1005D00017E0FFF74DFFC11B274881420BD8E068A9
:1005E0000007800F0128F4D10BE0FFF741FFC11B8A
:1005F0002148814201D90320F8BDE0680007800F3F
:10060000F3D11B480168C907C90FB1420DD9016870
:100610004908490031430160006800E003E0C00779
:10062000C00FB04201D00120F8BD2878400706D5A0
:10063000E068072109028843E9680843E0602878F8
:10064000000707D5E0680721C90288432969C90066
:100650000843E06000F016F8E168084A0906090F4F
:10066000515CC840064908600020FFF723FFF8BD31
:10067000002002400010024088130000431F0008C1
:100680003000002010B5184AD1680C20084004281A
:100690000BD0082810D00C2810D050680004410F4F
:1006A0000120C003491C884010BD1068C00601D558
:1006B0000E4810BD0E4810BD0E4810BD88020E4BEE
:1006C000000F185C0902D368890F491CDB0301D5B0
:1006D000084A05E01268D20601D5044A00E0044A3F
:1006E0005043FFF705FD10BD0010024000093D001A
:1006F0000024F40000127A00531F0008FEB5050024
:100700007ED0FE4CE7680C20E6680740012000041C
:1007100006402878C00747D0082F05D00C2F0AD1F3
:1007200001200004864206D1206880033CD5686819
:100730000028E5D038E0012069680004814203D137
:1007400021680143216011E0052301221B0492046A
:100750009942216802D111432160F1E78143216070
:10076000216801400091206890432060686800285B
:100770000DD0FFF77DFE009005E0FFF779FE0099B0
:10078000401A64287AD820688003F6D50CE0FFF779
:100790006FFE009005E0FFF76BFE0099401A642899
:1007A000F0D820688003F6D42878800755D509232F
:1007B000E868042F0DD00C2F01D1002E09D000289D
:1007C0003BD02168994301432160FFF751FE064663
:1007D00027E02168490701D5002891D061681F22D0
:1007E000120291432A691202114361602168994300
:1007F00001432160FFF746FFE16809060A0F00E0A8
:10080000BBE1BF49895CC840BE4908600020FFF7D2
:1008100051FE002872D120E0FFF72AFE801B02283B
:10082000B0D820684007F7D560681F2109028843C7
:1008300029690902084360600FE020684008400011
:100840002060FFF715FE064604E0FFF711FE801B4F
:10085000022897D820684007F7D42878C0065FD5CB
:10086000002F0CD0E869002849D02068FF21013111
:1008700008432060FFF7FCFD06462DE0E4E0206819
:10088000800502D5E8690028A7D0606807214903E0
:100890008843696A084360606068298C0002000A26
:1008A000090608436060686A410B0120C003491CC7
:1008B0008840E16809060A0F9149895CC84091495E
:1008C00008600020FFF7F6FD002817D128E0FFF7A9
:1008D000CFFD801B0228A3D820688005F7D560686B
:1008E000072149038843696A084360606068298C6E
:1008F0000002000A09060843606011E023E1216854
:10090000FF20013081432160FFF7B2FD064604E07D
:10091000FFF7AEFD801B02289BD820688005F7D426
:100920002878794E000724D568690028306910D0EE
:10093000012108433061FFF79BFD009005E0FFF7C0
:1009400097FD0099401A02287ED830698007F6D5B5
:100950000FE0400840003061FFF78AFD009005E09D
:10096000FFF786FD0099401A02286DD8306980078C
:10097000F6D42878400764D500200290A06BC00010
:1009800006D4A06B012109070843A063012002904F
:100990005E480168C90511D40168821511430160E0
:1009A000FFF766FD009005E0FFF762FD0099401A31
:1009B000642849D855480068C005F5D5FF20AA68C5
:1009C0000130824203D131690143316111E00121DB
:1009D0008902002A07D005231B029A4203D13269FB
:1009E0000A433261EFE732698243326130698843FA
:1009F0003061A86800280ED0FFF73AFD009006E0AD
:100A0000FFF736FD0099411A414881421CD83069F0
:100A10008005F5D50DE0FFF72BFD009006E0FFF710
:100A200027FD0099411A3A4881420DD83069800566
:100A3000F5D40298002804D0A16B0120000781435F
:100A4000A1632878800600E07CE02ED53148A969B2
:100A50004314002916D0A26801210A43A260626BE8
:100A60000A436263016A19430162FFF701FD06460A
:100A700004E0FFF7FDFC801B022863D8A068800714
:100A8000F7D512E0A16849084900A160016A9943BD
:100A90000162FFF7EDFC064604E0FFF7E9FC801B6E
:100AA00002284FD8A0688007F7D4A86A002866D02B
:100AB0000C2F4DD0012636060228206805D0B04301
:100AC0002060FFF7D5FC05463EE0B0432060FFF70D
:100AD000CFFC074604E0FFF7CBFCC01B022831D84F
:100AE00020688001F7D4296BE86AE2680843696BE3
:100AF000FD231B049A43114308430DE000100240FC
:100B0000431F0008300000204010024000700040E9
:100B10008813000000000140E0602068304320603E
:100B2000FFF7A6FC054604E0FFF7A2FC401B0228E5
:100B300008D820688001F7D521E0FFF799FC401B19
:100B4000022801D90320FEBD20688001F5D416E0FB
:100B50000128F8D0E06801210904EA6A01409142C5
:100B60000BD10F2189042A6B0140914205D1032149
:100B700089050840696B884201D00120FEBD002034
:100B8000FEBD70B5040007D0002625464035A6629C
:100B9000687C002802D005E0012070BD2E7420463C
:100BA00000F030F802206874206801684022914308
:100BB0000160A168606822690843E1681143084345
:100BC000616901220843A169520211400843E169A9
:100BD0000843216A0843A16A084321680860A069A4
:100BE0000421000C0840616A0843216848602068BD
:100BF000C16992009143C16166650120687400205B
:100C000070BD000070B586B0044614216846FFF739
:100C1000A0FA16492068884225D11548816B012227
:100C2000920311438163C26A04210A43C262C26A09
:100C30000A400592C16A02242143C162C06A0025AC
:100C40002040059008200326694671C1694609487D
:100C50000494FFF745FB2003694671C169460648C5
:100C60000495FFF73DFB06B070BD00000038004062
:100C7000001002400008005000040050FFB5054677
:100C800004464035287C002781B01646012809D04B
:100C900001202874FFF7ECFB0090687C012804D049
:100CA000022793E0022005B0F0BD0298002870D022
:100CB000002E6ED0032068740020606502992163C5
:100CC000A686E686A063A087E08760642064012191
:100CD000A068C903884205D12068016801229203F7
:100CE0001143016020680168490603D4016840226D
:100CF000114301600121E068C9028842606826D181
:100D0000002801D0012E1ED1206B21680088C86008
:100D100006E020688168890709D5216B0988C160D0
:100D2000206B801C2063E08E401EE0860BE0FFF706
:100D30009FFB0099411A0498814202D3401C02D0C3
:100D40003AE0002838D0E08E0028E2D127E00028E1
:100D500001D0012E20D1206B21680078087306E0B5
:100D600020688168890709D5216B09780173206B98
:100D7000401C2063E08E401EE0860DE0FFF778FB0C
:100D800001460098091A0498814203D3401C03D0FD
:100D900012E01AE000280FD0E08E0028E0D12046B3
:100DA000009A049900F029F9002801D020206065FC
:100DB000A068002802D005E0032707E02068C1688A
:100DC00080680090606D002800D0012701206874C1
:100DD00000202874384666E7094910B5401E88424D
:100DE00001D9012010BD074C60610321081F00F0EC
:100DF000E1F80020A06107202061002010BD000064
:100E0000FFFFFF0000E000E0F0B502462032137E55
:100E1000012B15D0012717760223537605686C68DD
:100E2000AB687026B4430E68496826438024A34308
:100E300019436E6000688160577600201076F0BD1F
:100E40000220F0BD70B5040005D025462035687E2F
:100E5000002802D006E0012070BD00202876204640
:100E600000F00AF802206876211D206800F014FDC9
:100E700001206876002070BD00680449884204D1D2
:100E80000348416B0422114341637047000801404D
:100E9000001002400222014620314A760068826832
:100EA00001235207520F062A02D002681A43026039
:100EB0004B7600207047FEE7F8B52948C26A042146
:100EC0000A43C262C26A0A400092C26A02210A430D
:100ED000C262C26A0A400092C16A01263143C162FD
:100EE000C06A204C3040009000253702A560276082
:100EF000666021461C48E560FFF7F2F9002239469A
:100F00001948FFF7AEFAA56080202146E56041C48C
:100F10001548083CFFF7E4F9A56040202146E5604C
:100F200041C41248083CFFF7DBF97702A56027604F
:100F300066602146E560052424072046FFF7D0F9C6
:100F4000002280210848FFF78CFA00224021074840
:100F5000FFF787FA002239462046FFF782FAF8BDEC
:100F6000001002408C0000200008005000040050D7
:100F700010B50E480C490160FF2105314160012187
:100F8000C90381600021C1600122016152028261B6
:100F90004161016210224162C26181620721C16226
:100FA000FFF7EFFD10BD00000038004034000020C6
:100FB000704700008307FF22DB0E9A408907090E65
:100FC000994000280BDA0007000F0838830808480A
:100FD0009B001818C36993430B43C3617047830890
:100FE00004489B001B18186890430843186070471A
:100FF00000ED00E000E400E0704738B504464068CA
:10100000FF2305332025984204D100920B4600228D
:10101000802107E05120005D05280DD100920B468C
:1010200000220121204600F009F8002804D0606D5C
:1010300028436065032038BD002038BDF8B51D4643
:1010400017460E46044609E0681C07D0FFF710FA61
:101050000699401AA8420BD2002D09D02068816859
:10106000304688432ED00020B842EDD10020F8BD94
:1010700020684168E022914341606068C11FFD39EA
:101080000CD10121A068C903884202D049118842CD
:1010900004D1206801684022914301600120A16AC7
:1010A0004003814207D121680A6882430A602168AF
:1010B0000A6802430A6001204034607400202074F2
:1010C0000320F8BD0120CFE7FFB583B003980D9E44
:1010D00050283EDA0498A0283BDAB0003118039873
:1010E0000818012835D40498F1000818012830D4D4
:1010F000002490001018019002E0052C0AD00198FD
:1011000001191A48475C0025F80705D00698012EFA
:1011100021D007E00027F6E706990C98884211D005
:10112000012E18D080B200902846049970434018D0
:1011300081B22046039A70438018334680B21A4623
:1011400000F02CF97F086D1C082DDDDB641C062CDB
:10115000D3DB07B0F0BD82B20498401981B2039886
:10116000001980B200F068F8ECE70000481A0008A7
:10117000F8B50546180A14460E460090DFB2002264
:1011800040211348FFF76DF9502D1FDAA02E1DDA0C
:101190002819401E502802DB5020401B04B2281999
:1011A000401EC2B2F3B2F1B2E8B200F0C5FA05E0F7
:1011B000009800F0E8FB384600F0E5FB641E24B21E
:1011C000F6D2012240210248FFF74BF9F8BD00009A
:1011D00000040050F8B50646180A14460D46009063
:1011E000DFB2002240211348FFF73BF9502E1FDAEF
:1011F000A02D1DDA2819401EA02802DBA020401BCC
:1012000004B22819401EC3B2F2B2E9B2F0B200F043
:1012100093FA05E0009800F0B6FB384600F0B3FB07
:10122000641E24B2F6D2012240210248FFF719F9C8
:10123000F8BD000000040050F8B516460C460546FF
:1012400050281BD2A02C19D20D4F00224021384625
:10125000FFF707F9601CC3B2681CC2B2E1B2E8B282
:1012600000F06AFA300AF4B200F08DFB204600F07C
:101270008AFB012240213846FFF7F3F8F8BD000051
:1012800000040050FFB583B00C4642480D9D0F9AF4
:10129000109942608160511AC1600021016104808F
:1012A0000A461E4640213C48FFF7DBF80021A023F8
:1012B00080220846009400F071F83C2275210A2033
:1012C000039BFFF755FF642211210A20039BFFF7C0
:1012D00081FF0A27B8B27721039AFFF7ADFF0A37DB
:1012E0006E2FF7DD1127B9B20920039AFFF7A4FF8B
:1012F0000A37782FF7DB0399322709B224B202911B
:1013000005980BE00120019000947A2138B2029BED
:10131000FFF7DAFE0598401C7F1D05900278002A31
:1013200001D0642FEEDB2878002830D00E981A27E1
:1013300000B202900120019000942A7839B2002076
:10134000029BFFF7C1FE68786D1C0837002801D0AA
:10135000322FEFDB52253078002811D00C9807B2DD
:1013600001200190009432783B4629B20020FFF71B
:10137000ABFE70780835761C002801D0782DEFDBA5
:10138000012240210448FFF76CF807B0F0BD2A2580
:10139000E1E700001000002000040050F8B51F46EF
:1013A00014460D46064650283DD2A02D3BD230199A
:1013B000401E502802DB5020801B84B2E819401EDA
:1013C000A02802DBA020401B87B200224021164843
:1013D000FFF747F8E819401EC3B23019401EC2B2E9
:1013E000E9B2F0B200F0A8F901220520510200078D
:1013F000FFF737F80698060A0EE0254608E0304663
:1014000000F0C1FA0698C0B200F0BDFA6D1EADB290
:10141000002DF4D17F1EBFB2002FEED1012240215A
:101420000148FFF71EF8F8BD0004005008B5002180
:101430000090A02350220846FFF7B0FF08BD00002F
:1014400070B5104C002240212046FFF70AF80E4DDF
:10145000002280212846FFF704F80720FEF72EFF20
:10146000012280212846FEF7FCFF00F00FF800F073
:1014700091F800F0AFF8012240212046FEF7F1FF7D
:1014800070BD0000000400500008005010B501209D
:1014900000F06CFA9620FEF711FF112000F066FABA
:1014A000FF20F530FEF70AFFB12000F05FFA0120BF
:1014B00000F069FA2C2000F066FA2D2000F063FAA3
:1014C000B22000F053FA012000F05DFA2C2000F069
:1014D0005AFA2D2000F057FAB32000F047FA012005
:1014E00000F051FA2C2000F04EFA2D2000F04BFABB
:1014F000012000F048FA2C2000F045FA2D2000F0E1
:1015000042FAB42000F032FA072000F03CFAC02082
:1015100000F02CFAA22000F036FA022000F033FA94
:10152000842000F030FAC12000F020FAC52000F03D
:101530002AFAC22000F01AFA0A2000F024FA002049
:1015400000F021FAC32000F011FA8A2000F01BFA03
:101550002A2000F018FAC42000F008FA8A2000F0CF
:1015600012FAEE2000F00FFAC52000F0FFF90E206D
:1015700000F009FA202000F0F9F9362000F0F6F921
:10158000C82000F000FA3A2000F0F0F9052000F041
:10159000FAF910BD10B52A2000F0E8F9002000F09B
:1015A000F2F9002000F0EFF9002000F0ECF97F20C4
:1015B00000F0E9F92B2000F0D9F9002000F0E3F960
:1015C000002000F0E0F9002000F0DDF97F2000F0BD
:1015D000DAF910BD10B5E02000F0C8F9022000F0E3
:1015E000D2F91C2000F0CFF9072000F0CCF912202E
:1015F00000F0C9F9372000F0C6F9322000F0C3F935
:10160000292000F0C0F92D2000F0BDF9292000F0BC
:10161000BAF9252000F0B7F92B2000F0B4F93920F1
:1016200000F0B1F9002000F0AEF9012000F0ABF9B4
:10163000032000F0A8F9102000F0A5F9E12000F047
:1016400095F9032000F09FF91D2000F09CF9072078
:1016500000F099F9062000F096F92E2000F093F999
:101660002C2000F090F9292000F08DF92D2000F0B9
:101670008AF92E2000F087F92E2000F084F9372017
:1016800000F081F93F2000F07EF9002000F07BF9A6
:10169000002000F078F9022000F075F9102000F029
:1016A00072F9132000F062F90A20FEF707FE2920E4
:1016B00000F05CF96420FEF701FE10BD10B508488B
:1016C0000169491C01613C2901DD00210161038898
:1016D000008A64220B30112100B2FFF77BFD10BDA0
:1016E0001000002070B5134E0D46B168401A6421F9
:1016F0004843F168FEF712FD1F21C9020446622823
:1017000001DD622402E0002C01DA00240D46742081
:10171000001B81B2308A2A460B3080B2FFF78CFD65
:101720007320001B81B2308A2A460B3080B2FFF74B
:1017300083FD70BD10000020F8B507461C46154615
:101740000E462A2000F012F9002000F01CF91A378A
:10175000F8B200F018F9002000F015F91A35E8B2D7
:1017600000F011F92B2000F001F9002000F00BF936
:10177000761CF0B200F007F9002000F004F9641CB8
:10178000E0B200F000F92C2000F0F0F8F8BD70474E
:1017900000B585B000910021019102916946FEF7E4
:1017A0009FFD05B000BD00B585B0009101210191FC
:1017B000002103916946FEF793FD05B000BD10B509
:1017C000FEF75CFE10BD000010B594B038216846ED
:1017D000FEF7BFFC14210EA8FEF7BBFC0220009010
:1017E00001210A90039180040C90002400010194CF
:1017F00010210D900B9404916846FEF77FFF0F486F
:10180000816B0204114381630D4801680322D202F7
:101810009143C214891801604168C943C906FBD5C8
:101820000F200E9003200F90109411940121129418
:101830000EA8FEF771FE14B010BD000000100240AB
:101840000070004010480168821511430160C168B2
:101850000E4A1140C16001680D4A11400160816863
:1018600049084900816001680122920491430160A6
:10187000C168FD2212049143C16000210161054944
:10188000C003886070470000001002400C40FF88D1
:10189000F6FFF6FE00ED00E070B5026801239B073D
:1018A000114C124D984203D0A04201D0A84203D15E
:1018B0007026B2434E683243984203D0A04201D012
:1018C000A84204D103231B029A43CB681A43802306
:1018D0009A430B691A4302608A68C262096881628E
:1018E0000121416170BD0000000801400014014069
:1018F00002E008C8121F08C1002AFAD170477047D9
:10190000002001E001C1121F002AFBD17047000036
:10191000044900220B685A6209684A6A8242FCD371
:1019200070470000A000002000B585B0002304939C
:101930006422074907A001AB07C3054806A3103876
:10194000009007A200210848FFF79CFC05B000BDED
:10195000FF07000068756D0074656D700000000081
:1019600074696D650000000060FD000010B504465C
:1019700001210520002249020007FEF772FD2046E2
:1019800000F00EF810BD10B50446012205205102EA
:101990000007FEF766FD204600F002F810BD0000CB
:1019A00001B501231A4669460148FFF767F908BDEA
:1019B000340000201CB5FEF769FDFFF705FF002489
:1019C000164800941449019401601F21846041600D
:1019D00013494461C160FFF735FA009469460F4826
:1019E0000194FFF711FA0D48FFF754FAFFF764FA74
:1019F000FFF7BEFAFFF724FD0020FFF717FDFFF702
:101A000093FFFEF715FCFEF735FC00F00BF8C8203D
:101A1000FEF754FCF7E7000000080140A00000209A
:101A2000FEFF000010B5064C3F214901E088FFF79A
:101A300059FE04492089FFF755FEFFF73FFE10BD10
:101A400000000020FF07000000000000003E5B4F88
:101A50005B3E3E6B4F6B3E1C3E7C3E1C183C7E3C0E
:101A6000181C577D571C1C5E7F5E1C00183C18001C
:101A7000FFE7C3E7FF0018241800FFE7DBE7FF30AC
:101A8000483A060E2629792926407F050507407F1A
:101A900005253F5A3CE73C5A7F3E1C1C08081C1C8D
:101AA0003E7F14227F22145F5F005F5F06097F0183
:101AB0007F006689956A606060606094A2FFA2946E
:101AC00008047E040810207E201008082A1C08083C
:101AD0001C2A08081E101010100C1E0C1E0C30388A
:101AE0003E3830060E3E0E06000000000000005F8B
:101AF00000000007000700147F147F14242A7F2AA7
:101B00001223130864623649562050000807030068
:101B1000001C2241000041221C002A1C7F1C2A08B4
:101B2000083E080800807030000808080808000017
:101B300060600020100804023E5149453E00427F8B
:101B4000400072494949462141494D331814127FDA
:101B50001027454545393C4A49493141211109077A
:101B60003649494936464949291E000014000000FB
:101B700040340000000814224114141414140041CD
:101B800022140802015909063E415D594E7C12118A
:101B9000127C7F494949363E414141227F414141C2
:101BA0003E7F494949417F090909013E414151733D
:101BB0007F0808087F00417F41002040413F017FAE
:101BC000081422417F404040407F021C027F7F0476
:101BD00008107F3E4141413E7F090909063E4151BF
:101BE000215E7F09192946264949493203017F01AF
:101BF000033F4040403F1F2040201F3F4038403FB0
:101C0000631408146303047804036159494D4300C5
:101C10007F4141410204081020004141417F0402FC
:101C20000102044040404040000307080020545493
:101C300078407F2844443838444444283844442871
:101C40007F385454541800087E090218A4A49C78C4
:101C50007F0804047800447D40002040403D007F20
:101C60001028440000417F40007C047804787C0800
:101C70000404783844444438FC18242418182424D4
:101C800018FC7C08040408485454542404043F44B9
:101C9000243C4040207C1C2040201C3C4030403CE8
:101CA00044281028444C9090907C4464544C440048
:101CB00008364100000077000000413608000201AC
:101CC0000204023C2623263C1EA1A161123A404098
:101CD000207A385454555921555579412154547816
:101CE00041215554784020545579400C1E527212AF
:101CF0003955555559395454545939555454580037
:101D000000457C410002457D420001457C40F029B0
:101D10002429F0F0282528F07C54554500205454FF
:101D20007C547C0A097F4932494949323248484843
:101D300032324A4848303A4141217A3A424020788A
:101D4000009DA0A07D39444444393D4040403D3C85
:101D500024FF2424487E4943662B2FFC2F2BFF09A8
:101D600029F620C0887E090320545479410000449C
:101D70007D413048484A32384040227A007A0A0A87
:101D8000727D0D19317D2629292F282629292926FA
:101D900030484D4020380808080808080808382F3F
:101DA00010C8ACBA2F102834FA00007B00000814C9
:101DB0002A142222142A1408AA005500AAAA55AAF5
:101DC00055AA000000FF00101010FF00141414FFAB
:101DD000001010FF00FF1010F010F0141414FC009D
:101DE0001414F700FF0000FF00FF1414F404FC14A7
:101DF0001417101F10101F101F1414141F001010A0
:101E000010F0000000001F101010101F1010101014
:101E1000F010000000FF101010101010101010FF34
:101E200010000000FF140000FF00FF00001F10174B
:101E30000000FC04F414141710171414F404F40034
:101E400000FF00F714141414141414F700F71414FA
:101E500014171410101F101F141414F4141010F081
:101E600010F000001F101F0000001F14000000FCF5
:101E7000140000F010F01010FF10FF141414FF14E1
:101E80001010101F00000000F010FFFFFFFFFFF018
:101E9000F0F0F0F0FFFFFF0000000000FFFF0F0F69
:101EA0000F0F0F38444438447C2A2A3E147E020225
:101EB0000606027E027E0263554941633844443C73
:101EC00004407E201E2006027E020299A5E7A59905
:101ED0001C2A492A1C4C7201724C304A4D4D30303C
:101EE00048784830BC625A463D3E494949007E0127
:101EF00001017E2A2A2A2A2A44445F444440514A46
:101F0000444040444A51400000FF0103E080FF008C
:101F10000008086B6B083612362436060F090F06C8
:101F2000000018180000001010003040FF010100F0
:101F30001F01011E00191D1712003C3C3C3C000013
:101F40000000000000000000000000010203040681
:101F5000070809030406080C101820307C1F00082D
:101F60000000002034000000F0180008B01F000836
:101F700034000020AC04000000190008000000003C
:101F80000000000000000000000000000000000051
:101F90000000000000000000000000000000000041
:101FA000010000000400000000000000000020000C
:04000005080000C12E
:00000001FF
