:020000040800F2
:1000000068040020D5000008090C0008070C00084F
:1000100000000000000000000000000000000000E0
:10002000000000000000000000000000530C000869
:100030000000000000000000510C0008550C0008F2
:10004000E7000008E7000008E7000008E7000008F4
:10005000E7000008E7000008E7000008E7000008E4
:10006000E7000008E7000008E7000008E7000008D4
:10007000E7000008E700000800000000190D000874
:1000800000000000E7000008000000000000000081
:10009000E700000800000000E7000008E700000893
:1000A000E7000008E7000008E7000008E700000894
:1000B000E7000008E7000008E7000008E700000884
:1000C0000348854600F03CF800480047A10D0008B1
:1000D000680400200448804704480047FEE7FEE724
:1000E000FEE7FEE7FEE7FEE7C50C0008C1000008DA
:1000F00030B50B46014600202022012409E00D46C0
:10010000D5409D4205D31D469540491B2546954047
:1001100040191546521E002DF1DC30BDD2B201E06F
:100120000270401C491EFBD270470022F6E710B552
:1001300013460A4604461946FFF7F0FF204610BD55
:10014000064C0125064E05E0E36807CC2B430C3C2A
:1001500098471034B442F7D3FFF7B6FF500E0008AB
:10016000700E0008FCB500230124A2E027462A46B1
:100170009F403A406FD04D68012D05D0022D03D02D
:10018000112D01D0122D16D185680326AC465D00D5
:10019000AE46AE406546B543AC46CE687546AE4009
:1001A00065462E43866046680D79BE43ED06ED0F29
:1001B0009D4035434560C6685F000325BD40AE469F
:1001C000AE4335468E68BE402E43C6604E68022E52
:1001D00001D0122E14D1DE08B60036180196366A08
:1001E0005D07B446EE0E0F25B54000966646AE4359
:1001F000B4460D69009EB54066462E43019D2E62B1
:1002000006687546AE430D79AD07AD0FBD40354369
:1002100005604D68ED004BD5294D6E6B26436E632E
:100220009E08284DB6007519AC46AD689E07360F7E
:100230000F27B740BD4305273F07B84201D100272C
:1002400015E0214FB84201D1012710E01F4FB842FD
:1002500002D102270BE02BE01D4FB84201D103274A
:1002600005E01C4FB84201D1052700E00627B74042
:100270002F436546AF60184D2E684F689643FF03C5
:1002800000D516432E606E684F689643BF0300D5B5
:1002900016436E60AE684F689643FF0200D5164362
:1002A000AE60EE684F689643BF0200D51643EE601D
:1002B0005B1C0A681546DA4000D057E7FCBD000019
:1002C00000100240000001400004005000080050EF
:1002D000000C0050001C005000040140002A01D016
:1002E00081617047816270470148806870470000F3
:1002F00004000020024881680278891881607047F4
:100300000400002010B50848002401684022114371
:100310000160204600F00AF8002801D0012401E025
:1003200000F026F8204610BD0020024070B50446BB
:100330000D4D7D202978C000FFF7DAFE01460B48FD
:100340000068FFF7D5FE00F063FB002809D1042CFC
:1003500007D200222146401E00F020F800206C60E9
:1003600070BD012070BD00000400002010000020BE
:100370000448416B012211434163816B0204114324
:100380008163704700100240C106C90E01208840F9
:10039000014908607047000000E100E010B500F07E
:1003A00035FC10BDF8B50E4605007DD053480068F9
:1003B000C007C00FB0420AD250480168490849003E
:1003C000314301600068C007C00FB04271D1287886
:1003D0004B4C800705D5E068F0218843A9680843A5
:1003E000E0602878C00752D06868022817D0032838
:1003F00018D02168012818D08905002959DAE16848
:10040000890889000143E160FFF76EFF69680746CC
:10041000022912D003291CD0012926D033E02168FB
:100420008903EAE721688901E7E74907E5E7FFF77C
:100430005BFFC11B3348814223D8E0680007800F6F
:100440000228F4D123E0FFF74FFFC11B2D48814262
:1004500017D8E0680007800F0328F4D117E0FFF7F2
:1004600043FFC11B274881420BD8E0680007800F7B
:100470000128F4D10BE0FFF737FFC11B214881426F
:1004800001D90320F8BDE0680007800FF3D11B48B5
:100490000168C907C90FB1420DD90168490849006F
:1004A00031430160006800E003E0C007C00FB042C4
:1004B00001D00120F8BD2878400706D5E068072163
:1004C00009028843E9680843E0602878000707D5F7
:1004D000E0680721C90288432969C9000843E06030
:1004E00000F016F8E168084A0906090F515CC84097
:1004F000064908600020FFF719FFF8BD0020024000
:100500000010024088130000340E00081000002084
:1005100010B5184AD1680C20084004280BD00828D0
:1005200010D00C2810D050680004410F0120C003E7
:10053000491C884010BD1068C00601D50E4810BD8A
:100540000E4810BD0E4810BD88020E4B000F185CFF
:100550000902D368890F491CDB0301D5084A05E06D
:100560001268D20601D5044A00E0044A5043FFF75E
:10057000BFFD10BD0010024000093D000024F40042
:1005800000127A00440E0008FEB505007ED0FE4C35
:10059000E7680C20E6680740012000040640287840
:1005A000C00747D0082F05D00C2F0AD10120000426
:1005B000864206D1206880033CD568680028E5D0D3
:1005C00038E0012069680004814203D121680143B9
:1005D000216011E0052301221B0492049942216845
:1005E00002D111432160F1E781432160216801407C
:1005F0000091206890432060686800280DD0FFF7C4
:1006000073FE009005E0FFF76FFE0099401A642822
:100610007AD820688003F6D50CE0FFF765FE0090DD
:1006200005E0FFF761FE0099401A6428F0D82068C1
:100630008003F6D42878800755D50923E868042F6D
:100640000DD00C2F01D1002E09D000283BD02168FD
:10065000994301432160FFF747FE064627E02168E2
:10066000490701D5002891D061681F2212029143E9
:100670002A69120211436160216899430143216094
:10068000FFF746FFE16809060A0F00E0BBE1BF493A
:10069000895CC840BE4908600020FFF747FE00287B
:1006A00072D120E0FFF720FE801B0228B0D820681E
:1006B0004007F7D560681F210902884329690902AC
:1006C000084360600FE02068400840002060FFF7AA
:1006D0000BFE064604E0FFF707FE801B022897D8B2
:1006E00020684007F7D42878C0065FD5002F0CD0CB
:1006F000E869002849D02068FF21013108432060C3
:10070000FFF7F2FD06462DE0E4E02068800502D503
:10071000E8690028A7D06068072149038843696A0F
:10072000084360606068298C0002000A09060843DB
:100730006060686A410B0120C003491C8840E16881
:1007400009060A0F9149895CC84091490860002058
:10075000FFF7ECFD002817D128E0FFF7C5FD801B4F
:100760000228A3D820688005F7D5606807214903CF
:100770008843696A084360606068298C0002000A47
:1007800009060843606011E023E12168FF20013081
:1007900081432160FFF7A8FD064604E0FFF7A4FDB2
:1007A000801B02289BD820688005F7D42878794ED2
:1007B000000724D568690028306910D0012108435A
:1007C0003061FFF791FD009005E0FFF78DFD009986
:1007D000401A02287ED830698007F6D50FE040081D
:1007E00040003061FFF780FD009005E0FFF77CFDE1
:1007F0000099401A02286DD830698007F6D428780D
:10080000400764D500200290A06BC00006D4A06B06
:10081000012109070843A063012002905E48016896
:10082000C90511D40168821511430160FFF75CFD11
:10083000009005E0FFF758FD0099401A642849D858
:1008400055480068C005F5D5FF20AA6801308242EE
:1008500003D131690143316111E001218902002A8C
:1008600007D005231B029A4203D132690A43326141
:10087000EFE7326982433261306988433061A868AA
:1008800000280ED0FFF730FD009006E0FFF72CFDAA
:100890000099411A414881421CD830698005F5D53C
:1008A0000DE0FFF721FD009006E0FFF71DFD009928
:1008B000411A3A4881420DD830698005F5D4029832
:1008C000002804D0A16B012000078143A163287890
:1008D000800600E07CE02ED53148A9694314002948
:1008E00016D0A26801210A43A260626B0A436263C8
:1008F000016A19430162FFF7F7FC064604E0FFF7BF
:10090000F3FC801B022863D8A0688007F7D512E0AB
:10091000A16849084900A160016A99430162FFF793
:10092000E3FC064604E0FFF7DFFC801B02284FD8FB
:10093000A0688007F7D4A86A002866D00C2F4DD095
:10094000012636060228206805D0B0432060FFF754
:10095000CBFC05463EE0B0432060FFF7C5FC0746F0
:1009600004E0FFF7C1FCC01B022831D820688001D9
:10097000F7D4296BE86AE2680843696BFD231B041E
:100980009A43114308430DE000100240340E000862
:10099000100000204010024000700040881300004A
:1009A00000000140E060206830432060FFF79CFCBD
:1009B000054604E0FFF798FC401B022808D8206891
:1009C0008001F7D521E0FFF78FFC401B022801D9F9
:1009D0000320FEBD20688001F5D416E00128F8D080
:1009E000E06801210904EA6A014091420BD10F211C
:1009F00089042A6B0140914205D1032189050840F1
:100A0000696B884201D00120FEBD0020FEBD0000C0
:100A1000094910B5401E884201D9012010BD074C7C
:100A200060610321081F00F0F1F80020A061072099
:100A30002061002010BD0000FFFFFF0000E000E08B
:100A400070B5040005D025462035687E002802D008
:100A500006E0012070BD00202876204600F00AF84C
:100A600002206876211D206800F05EF9012068767A
:100A7000002070BD10B500680121890788420CD1A3
:100A80000648816B012211438163002211460F2029
:100A9000FFF784FC0F20FFF777FC10BD0010024029
:100AA0000268D36801210B43D36000688268520753
:100AB000520F062A02D002680A43026000207047E3
:100AC000704770B50446006801690025C94389076D
:100AD000002915DBC168C943890711D4E91E0161EA
:100AE00001202076206880698007204602D0FFF729
:100AF000E7FF04E000F078F8204600F076F825766D
:100B000020680169C943490717D4C168C943490727
:100B100013D40421C9430161022020762068806932
:100B20008005800F204602D0FFF7CAFF04E000F0E6
:100B30005BF8204600F059F8257620680169C94322
:100B4000090716D4C168C943090712D40821C9434B
:100B50000161042020762068C0698007204602D009
:100B6000FFF7AEFF04E000F03FF8204600F03DF84C
:100B7000257620680169C943C90617D4C168C943ED
:100B8000C90613D41021C9430161082020762068CA
:100B9000C0698005800F204602D0FFF791FF04E076
:100BA00000F022F8204600F020F825762068016940
:100BB000C943C90708D1C168C943C90704D1891EFF
:100BC0000161204600F012F820680169C943490616
:100BD00009D4C168C943490605D44021C94301610C
:100BE000204600F00FF870BD704770470068012183
:100BF0008907884202D1024901200870704700002D
:100C0000000000207047FEE7704700008307FF22C6
:100C1000DB0E9A408907090E994000280BDA00077D
:100C2000000F0838830808489B001818C3699343CD
:100C30000B43C3617047830804489B001B18186866
:100C4000904308431860704700ED00E000E400E0C6
:100C50007047704710B5FFF74DFB10BD10B594B04D
:100C600038216846FFF761FA14210EA8FFF75DFAF4
:100C7000134801680322D2029143C214891801600B
:100C80000220009001210A90039180040C90000141
:100C9000102100240D900B9404916846FFF774FC1A
:100CA0000F200E9003200F90072000021190129049
:100CB000109401210EA8FFF775FB14B010BD0000C1
:100CC0000070004010480168821511430160C1683E
:100CD0000E4A1140C16001680D4A114001608168EF
:100CE0004908490081600168012292049143016032
:100CF000C168FD2212049143C160002101610549D0
:100D0000C003886070470000001002400C40FF885C
:100D1000F6FFF6FE00ED00E010B50248FFF7D1FE49
:100D200010BD00002800002070B5026801239B0759
:100D3000114C124D984203D0A04201D0A84203D1D9
:100D40007026B2434E683243984203D0A04201D08D
:100D5000A84204D103231B029A43CB681A43802381
:100D60009A430B691A4302608A68C2620968816209
:100D70000121416170BD00000008014000140140E4
:100D800002E008C8121F08C1002AFAD17047704754
:100D9000002001E001C1121F002AFBD170470000B2
:100DA00008B51848C26A08210A43C262C06A002511
:100DB00008400090144801214160042185600160D1
:100DC0000221C16001461148FFF7CCF9FFF79AFAFA
:100DD000FFF744FF0C4C01208007143420600C48BE
:100DE0006060A5602561E060802060612046FFF7BB
:100DF00027FE2168A81E08612046FFF751FE00F07B
:100E000009F8FCE70010024014000020000C00501C
:100E100060EA000010B505480078012804D10122DD
:100E200004210348FFF75AFA10BD0000000000201B
:100E3000000C00500000000000000000010203044C
:100E400006070809030406080C10182030000000EB
:100E5000700E00080000002014000000800D000843
:100E6000840E00081400002054040000900D0008B7
:100E7000000000000100000004000000000000006D
:040E8000000020004E
:04000005080000C12E
:00000001FF
